:020000040800F2
:1000000020040020010100084B09000843090008F2
:1000100047090008F9050008E91100080000000080
:10002000000000000000000000000000C50D0008F6
:10003000C107000800000000690D0008F50E000867
:100040001B0100081B0100081B0100081B01000820
:100050001B0100081B0100081B0100081B01000810
:100060001B0100081B0100081B0100081B01000800
:100070001B0100081B0100081B0100081B010008F0
:100080001B0100081B0100081B0100081B010008E0
:100090001B0100081B0100081B0100081B010008D0
:1000A0001B0100081B0100081B0100081B010008C0
:1000B0001B0100081B0100081B0100081B010008B0
:1000C0001B0100081B0100081B0100081B010008A0
:1000D0001B010008D91000081B0100081B010008C3
:1000E0001B0100081B0100081B010008DFF80CD0F1
:1000F00000F046F9004800470D12000820040020D7
:100100000648804706480047FEE7FEE7FEE7FEE7B1
:10011000FEE7FEE7FEE7FEE7FEE7FEE7F90E000872
:10012000ED000008F0B480EA0102D40F4200B2EB07
:10013000410F02D20246084611464A0042D0C30D82
:10014000DDB2C1F3C752AD1A202D35DAC1F3160165
:1001500041F4000204B15242C5F1200602FA06F150
:100160002A411044B3EBD05F23D0C4B1012DA0EBE2
:10017000C35009DCF0BC4FF0004202EAC352DBB2CC
:1001800000F5000000F0CDB8400000F1807000EBF9
:10019000C350A0F1807040EAD170490009E04908DD
:1001A00041EAC071A0EBC35000F50000400800EB2D
:1001B000C350F0BC00F0ACB86142012202EB410137
:1001C000001BF6E7F0BC704781F00041AAE780F021
:1001D0000040A7E780EA010210B502F000434000AA
:1001E00022D04A001FD0010E01EB1261C0F356006D
:1001F000C2F3560240F4000042F40002A0FB0220C9
:1002000000047F39140400D0401C50EA124001D48D
:100210004000491EC2B20C0604EBD010401C40083E
:10022000802A02D003E0002010BD20F00100002948
:1002300000DA0020184310BD30B480EA010202F059
:10024000004530F0004221F0004013D090B1C30DC2
:10025000D40DC2F31601C0F31600E41A41F40001F4
:1002600040F400027D34914201D3641C00E0490057
:10027000002C02DA30BC002070474FF4000000234D
:10028000914201D3891A034340084FEA4101F7D153
:1002900051B1914202D14FF0004105E002D24FF03E
:1002A000010101E06FF0010103EBC450284430BCB0
:1002B00000F02EB896230022114600F032B820F04C
:1002C0000040C10DC0F3160040F400007F2901DAA0
:1002D00000207047962903DCC1F19601C8407047A1
:1002E0009639884070470000002801DBC0F10040CB
:1002F000002901DBC1F1004181427047002801DB88
:10030000C0F10040002901DBC1F100418842704783
:100310000029A8BF7047401C490008BF20F0010019
:10032000704710B4B0FA80FC00FA0CF050EA0104F7
:1003300004BF10BC704749B1CCF1200421FA04F489
:1003400011FA0CF118BF012121430843A3EB0C0162
:10035000CB1D4FEA00614FEA102042BF002010BCC5
:10036000704700EBC35010440029A4BF10BC704775
:10037000401C490008BF20F0010010BC704700007D
:10038000064C074D06E0E06840F0010394E80700E2
:1003900098471034AC42F6D3FFF7ACFE5C1E000861
:1003A0007C1E000821B1826842F00102826003E0F5
:1003B000826822F0010282607047014600208A684C
:1003C00002F004020AB1012000E00020704701465B
:1003D000C86C80B270470246002013680B400BB116
:1003E000012000E000207047014600208A6802F0EA
:1003F00008020AB1012000E00020704730B5024633
:100400000020002350680F4C20400D790C6844EA0E
:1004100005242043506090680B4C2040D1E90254E1
:100420002C434D7944EA450420439060D06A20F47F
:1004300070000C7C641EE4B2234340EA0350D06297
:1004400030BD0000FFFEF0FFFDF7F1FFF0B5044600
:100450000D4600200021092D11DDE068A5F10A06F6
:1004600006EB4607072606FA07F18843A5F10A06B8
:1004700006EB460603FA06F10843E0600CE020694B
:1004800005EB4507072606FA07F1884305EB450605
:1004900003FA06F108432061072A0FDA606B561E43
:1004A00006EB86071F2606FA07F18843561E06EB61
:1004B000860605FA06F10843606322E00D2A0FDA8A
:1004C000206BD61F06EB86071F2606FA07F1884326
:1004D000D61F06EB860605FA06F10843206310E0F6
:1004E000E06AA2F10D0606EB86071F2606FA07F161
:1004F0008843A2F10D0606EB860605FA06F10843CD
:10050000E062F0BD816841F008018160704721B16F
:10051000826842F4A002826003E0826822F4A002B2
:1005200082607047816841F004018160704700007B
:1005300010B504460523012221460948FFF786FF2E
:1005400001210748FFF7E3FF00BF02210448FFF73E
:1005500042FF0028F9D00248FFF739FF10BD000024
:100560000024014000B587B00121480200F01AFCC8
:100570000121042000F016FC4FF4004000F0F6FBCF
:1005800000208DF81B000F20ADF8180003208DF817
:100590001A0006A9164800F037F9002001900490CF
:1005A0004FF46020039000208DF809008DF80800BA
:1005B00001208DF8140001A90E48FFF71FFF01214B
:1005C0000C48FFF7EFFE0B48FFF79CFF00BF094800
:1005D000FFF70AFF0128FAD00648FFF7A3FF00BF84
:1005E0000448FFF7EAFE0128FAD007B000BD00007A
:1005F000000801400024014000BFFEE710B50024C0
:10060000002000F045F804E0601CC4B2012000F0B6
:10061000E4F801210E4800F082F908B1642CF3DB04
:10062000642C01DB012010BD002404E0601CC4B276
:10063000012000F0D2F80121054800F070F908B956
:10064000642CF3DB642C01DB0120ECE70020EAE7FB
:100650000010014008B50121102000F0A3FB01208B
:10066000ADF8000010208DF8030003208DF8020083
:100670006946064800F0C8F80121044800F05AF91C
:1006800000F088F8FFF7BAFF08BD00000010014035
:1006900038B504464CB10120ADF8000003208DF8B8
:1006A000020010208DF8030005E00120ADF80000E5
:1006B00004208DF803006946014800F0A5F838BD14
:1006C0000010014010B5002404E0601CC4B20120F9
:1006D00000F083F80121104800F021F908B1642CE2
:1006E000F3DB002404E0601CC4B2012000F075F8C4
:1006F0000121094800F013F908B9642CF3DB282024
:1007000000F06BF80121044800F009F908B101205C
:1007100010BD0020FCE700000010014070B500246F
:10072000002506E06006040EFFF7CCFF0443681CBA
:10073000C5B2082DF6DB204670BD7CB505460E46D9
:1007400000F028F8FFF75AFFF8B9002405E0FFF79A
:10075000E5FF0DF80400601CC4B2052CF7DB9DF822
:1007600000009DF8011008449DF8021008449DF80F
:10077000031008449DF80410884208D19DF8000039
:1007800030709DF80200287001E001207CBD00203F
:10079000FCE7000010B50120FFF77AFF01210748B0
:1007A00000F0C6F8142000F00CF80121034800F016
:1007B000C1F80D2000F011F810BD0000001001403C
:1007C000704700B5034603E04FF47A7000F005F877
:1007D000181EA3F10103F7D100BD00EBC001C90051
:1007E0004FF0E0225161002191610521116100BFAC
:1007F0004FF0E021096901F480310029F8D004218B
:100800004FF0E022116170472DE9F04102460025CA
:100810000026002000230024002791F803C00CF0DC
:100820000F0591F803C00CF0100CBCF1000F03D0C1
:1008300091F802C04CEA050591F800C0BCF1000F28
:1008400031D0146800202BE04FF0010C0CFA00F3BB
:10085000B1F800C00CEA03069E4220D183004FF09D
:100860000F0C0CFA03F7BC4305FA03FC4CEA040432
:1008700091F803C0BCF1280F06D14FF0010C0CFA1F
:1008800000FCC2F814C00AE091F803C0BCF1480FA4
:1008900005D14FF0010C0CFA00FCC2F810C0401C4E
:1008A0000828D1D31460B1F800C0BCF1FF0F34DDCB
:1008B000546800202EE000F1080C4FF0010808FAFF
:1008C0000CF3B1F800C00CEA03069E4221D183006C
:1008D0004FF00F0C0CFA03F7BC4305FA03FC4CEA8B
:1008E000040491F803C0BCF1280F05D100F1080CF5
:1008F00008FA0CF8C2F8148091F803C0BCF1480F54
:1009000007D100F1080C4FF0010808FA0CF8C2F802
:100910001080401C0828CED35460BDE8F081024608
:10092000002093680B400BB1012000E000207047CD
:1009300041617047016170470AB1016100E04161A6
:10094000704700BFFEE700BFFEE7704770B50024A8
:100950000EE00021204600F0F0F8002504E0002021
:1009600000F09EF9681CC5B2802DF8DB601CC4B293
:10097000082CEEDB70BD000008B50121082000F056
:1009800011FA14208DF8030003208DF802004FF4B3
:100990008070ADF8000069460A48FFF735FF4FF454
:1009A0000070ADF8000069460648FFF72DFF0122F0
:1009B00011020448FFF7C0FF012251020148FFF76E
:1009C000BBFF08BD000C014070B50546002415E0D2
:1009D0008020204100EA05024FF400710E48FFF725
:1009E000ABFF012211020C48FFF7A6FF00224FF4D3
:1009F00080710948FFF7A0FF601CC4B2082CE7DB38
:100A0000012211020448FFF797FF00224FF4807182
:100A10000148FFF791FF70BD000C014010B50122A5
:100A200051020A48FFF788FF012211020748FFF729
:100A300083FF00224FF400710448FFF77DFF00227E
:100A40004FF480710148FFF777FF10BD000C0140A3
:100A500010B500224FF400710648FFF76DFF012228
:100A600011020448FFF768FF012251020148FFF715
:100A700063FF10BD000C014070B5002406E00025A6
:100A800000E06D1CB5F57A7FFBD3641CB4F57A7F6A
:100A9000F5D3FFF771FFAE2000F0F2F8D52000F09B
:100AA000EFF8802000F0ECF8A82000F0E9F83F20F3
:100AB00000F0E6F8D32000F0E3F8002000F0E0F8C2
:100AC000402000F0DDF8A12000F0DAF8C82000F0A6
:100AD000D7F8DA2000F0D4F8122000F0D1F8812005
:100AE00000F0CEF8CF2000F0CBF8D92000F0C8F805
:100AF000F12000F0C5F8DB2000F0C2F8302000F053
:100B0000BFF8A42000F0BCF8A62000F0B9F88D20B2
:100B100000F0B6F8142000F0B3F8AF2000F0B0F801
:100B2000FFF714FF70BD10B50246012000E05043EE
:100B30000B1EA1F10101FAD110BD70B505460C469E
:100B400045F0B00000F09CF8102141EA141000F0CC
:100B500097F804F00F0000F093F870BD2DE9F04114
:100B600005460E461746721ED206110E6A1E520622
:100B7000100EFFF7E2FF002409E0A7F12001134A5D
:100B800002EB0111085D00F08BF8601CC4B2082C68
:100B9000F3DB721ED206110E6A1E012303EB420222
:100BA000D0B2FFF7CAFF00240BE0A7F12001074AEB
:100BB00002EB011204F10801505C00F071F8601CB6
:100BC000C4B2082CF1DBBDE8F08100002C14000851
:100BD0002DE9F04105460E461746721E1207110E0A
:100BE0006A1E5206100EFFF7A8FF002407E0124904
:100BF00001EB4711085D00F053F8601CC4B2102CE3
:100C0000F5DB721E1207110E6A1E012303EB42026E
:100C1000D0B2FFF792FF002409E0074901EB471229
:100C200004F11001505C00F03BF8601CC4B2102CC1
:100C3000F3DBBDE8F08100001C1A00082DE9F04745
:100C400080460E4617461D46002415E0281B411E0F
:100C50000A20FFF768FFB7FBF0F00A21B0FBF1F2C2
:100C600001FB120000F130093019C1B24A4640467A
:100C7000FFF774FF601CC4B2AC42E7DBBDE8F0874D
:100C800010B50446FFF7CAFE7820FFF79DFE00204E
:100C9000FFF79AFE2046FFF797FEFFF7D9FE10BD3B
:100CA00010B50446FFF7BAFE7820FFF78DFE40200E
:100CB000FFF78AFE2046FFF787FEFFF7C9FE10BD4B
:100CC00010B504462146024800F0B2F910BD0000FC
:100CD0000004004000B589B00121022000F052F864
:100CE0000121082000F05EF818208DF82300012073
:100CF000ADF8200003208DF8220008A91848FFF75E
:100D000083FD184800F034F90020ADF81A00ADF862
:100D1000160044F61F60ADF818004720ADF8140027
:100D200000208DF81C0005A90E4800F083F901A8E9
:100D300000F074F96020ADF804000020ADF80C005C
:100D40000120ADF806000020ADF80A0001A9054811
:100D500000F014F90121034800F0FEF809B000BDCD
:100D6000000C0140000400407047000001460020D4
:100D7000034A506820F44040084350607047000028
:100D80000010024029B1064AD2690243044BDA61DD
:100D900004E0034AD2698243014BDA6170470000E4
:100DA0000010024029B1064A92690243044B9A613D
:100DB00004E0034A92698243014B9A617047000044
:100DC00000100240704710B5FFF784FF10BD00000F
:100DD0002DE9F04104460A492046FFF72DFA8046E6
:100DE0000849FFF7F7F907460749FFF79BF9064659
:100DF000FFF765FA85B22846FFF762FFBDE8F0818C
:100E0000000034430000FA440000FA4310B500F03B
:100E100001F810BD0CB50020019000903348006827
:100E200040F480303149086000BF3048006800F469
:100E3000003000900198401C0190009818B901986A
:100E4000B0F5A06FF1D12948006800F4003010B16E
:100E50000120009001E0002000900098012843D17B
:100E60002348006840F010002149086008460068E7
:100E700020F0030008600846006840F002000860A7
:100E80001A48406819494860084640684860084662
:100E9000406840F4806048600846406820F47C1058
:100EA00048600846406840F4E8104860084600681A
:100EB00040F08070086000BF0C48006800F00070CF
:100EC0000028F9D00948406820F00300074948602D
:100ED0000846406840F00200486000BF0348406890
:100EE00000F00C000828F9D10CBD000000100240F1
:100EF000002002407047000010B51348006840F021
:100F000001001149086008464068104908400E4930
:100F10004860084600680E4908400B4908600846CA
:100F2000006820F4802008600846406820F4FE0035
:100F300048604FF41F008860FFF768FF4FF00060C3
:100F40000449086010BD0000001002400000FFF8D6
:100F5000FFFFF6FE08ED00E021B1028842F0010239
:100F6000028004E002884FF6FE731A400280704748
:100F700001894FF6F87211400181704770B5002465
:100F800000220023058C4FF6FF6635400584028C55
:100F90008388848B4FF68F752C404FF6FC752C4060
:100FA0000D882C434FF6FF552A400D894FF6FF76EA
:100FB00006EA05252A434D8806EA05252A43154DEC
:100FC000A84202D0144DA8421DD14FF2FF752A400D
:100FD0004D894FF6FF7606EA05252A434FF6FF3581
:100FE0002A408D8806EA05252A434EF6FF752B40D8
:100FF0004DF6FF752B408D8906EA05152B43CD89EB
:1010000006EA05152B4383808483CD888587028477
:1010100070BD0000002C014000340140002101801F
:1010200041808180C180018141818181C18170477E
:1010300081877047002202881D4B98420ED01D4BBD
:1010400098420BD0B0F1804F08D01B4B984205D08E
:101050001A4B984202D01A4B984204D14FF68F7324
:101060001A404B881A43174B984207D0164B9842A8
:1010700004D04FF6FF431A40CB881A4302808B8876
:1010800083850B8803850A4B98420BD0094B984205
:1010900008D00E4B984205D00D4B984202D00D4B14
:1010A000984201D10B7A03860123838270470000A6
:1010B000002C0140003401400004004000080040C2
:1010C000000C0040001000400014004000400140AF
:1010D000004401400048014010B540F225511E482F
:1010E00000F053F8012836D11B4800F078F8C4B25C
:1010F0001A48007840B9FF2C27D101201749087001
:1011000000201749087020E014480078012810D109
:10111000144813490978445411480078401C104978
:1011200008700846007804280FDB02200B4908707D
:101130000BE00A480078022807D1FE2C05D10020D8
:101140000649087001200849087040F225510248FC
:1011500000F00CF800BF10BD00380140090000206D
:101160000A000020040000200800002010B5002222
:10117000002340F66A14A14200D100BF0A120124E4
:101180009440A3B2DC43048010BD70B50246002435
:1011900000230025002040F66A16B14200D100BFAE
:1011A000C1F3421501F01F03012606FA03F3012DD6
:1011B00002D19689334006E0022D02D1168A3340CF
:1011C00001E0968A33400C12012606FA04F41688D0
:1011D000344013B10CB1012000E0002070BD014685
:1011E0008888C0F30800704700BFFEE702E008C827
:1011F000121F08C1002AFAD170477047002001E091
:1012000001C1121F002AFBD170470000FFF734FC18
:10121000FFF720FAFFF7D7FDFFF7A4F9002201211D
:101220000846FFF7D5FC012202211046FFF7D0FC4B
:101230003A2205210120FFF791FC432209210120D8
:10124000FFF78CFC022201211046FFF7C1FC0122AE
:1012500002210846FFF7BCFC3A2205210220FFF7D5
:101260007DFC252209210220FFF778FCC3E06249BA
:101270006248FFF762FA0120FFF75AF960490880D7
:1012800008460088FFF716F805465E49FEF7D4FFCA
:1012900004465D49FEF79EFF5C49086002235748FB
:1012A000027806210120FFF7C9FC02235248027888
:1012B00006211846FFF7C2FC54480068FEF7FFFFFE
:1012C00004460223224606210320FFF7B7FC4A48C2
:1012D000007800281EDD484800784D49097888428A
:1012E00018DC4C480078FEF7E5FF044647480168E3
:1012F0002046FEF7F9FF0DD247480078FEF7DAFFE7
:101300000446424801682046FEF7F8FF02D84348E9
:10131000FFF75EFD384800783D49097888421EDDB8
:10132000354800783E490978884218DC3948007809
:10133000FEF7C0FF0446354801682046FEF7D4FF9B
:101340000DD235480078FEF7B5FF04462F480168F6
:101350002046FEF7D3FF02D83248FFF739FD264872
:1013600000782F49097888421CDD234800785528E9
:1013700018DC28480078FEF79DFF044623480168E2
:101380002046FEF7B1FF0DD223480078FEF792FF0A
:1013900004461E4801682046FEF7B0FF02D82248E6
:1013A000FFF716FD1B480078FEF784FF0446174838
:1013B00001682046FEF7A2FF01D8012500E00025C4
:1013C0000D480078552801DD012000E0002005438C
:1013D00011480078FEF76EFF04460C48016820466D
:1013E000FEF782FF01D8012000E00020054315B17F
:1013F0000020FFF7EDFC3AE70D0000200C00002074
:101400001400002000F07F450000F0411000002093
:1014100017000020190000201800002000003443AD
:10142000160000200000F0420000704200000000A2
:10143000000000000000000000000000000000F8B4
:1014400000000000000000333000000000100C0617
:10145000100C0600000000000000000040C07840B2
:10146000C0784000043F04043F040400007088FC7E
:1014700008300000001820FF211E0000F008F000D6
:10148000E018000000211C031E211E0000F0088847
:10149000700000001E2123241927211010160E00B1
:1014A000000000000000000000000000000000E05C
:1014B0001804020000000007182040000002041871
:1014C000E00000000040201807000000404080F0CD
:1014D000804040000202010F01020200000000F003
:1014E000000000000101011F0101010000000000D7
:1014F0000000000080B0700000000000000000004C
:1015000000000000000101010101010100000000D4
:10151000000000000030300000000000000000006B
:1015200080601804006018060100000000E0100848
:101530000810E000000F102020100F00001010F81D
:10154000000000000020203F20200000007008085C
:1015500008887000003028242221300000300888DC
:10156000884830000018202020110E000000C02004
:1015700010F8000000070424243F240000F8088825
:10158000880808000019212020110E0000E01088B2
:1015900088180000000F112020110E0000380808E4
:1015A000C83808000000003F0000000000708808F4
:1015B00008887000001C222121221C0000E0100875
:1015C0000810E0000000312222110F00000000C0CE
:1015D000C00000000000003030000000000000806B
:1015E000000000000000806000000000000080405B
:1015F0002010080000010204081020004040404074
:1016000040404000040404040404040000081020C6
:10161000408000000020100804020100007048080B
:101620000808F0000000003036010000C030C82873
:10163000E810E0000718272423140B000000C0382E
:10164000E0000000203C23020227382008F88888A8
:1016500088700000203F202020110E00C0300808B4
:1016600008083800071820202010080008F808088B
:101670000810E000203F202020100F0008F8888884
:10168000E8081000203F20202320180008F8888850
:10169000E8081000203F200003000000C0300808C8
:1016A0000838000007182020221E020008F8080051
:1016B0000008F808203F210101213F20000808F818
:1016C000080800000020203F20200000000008083B
:1016D000F8080800C08080807F00000008F888C0FB
:1016E00028180800203F20012638200008F80800AC
:1016F00000000000203F20202020300008F8F800E3
:10170000F8F80800203F003F003F200008F830C0F4
:101710000008F808203F200007183F00E0100808E4
:101720000810E0000F10202020100F0008F8080813
:101730000808F000203F210101010000E010080826
:101740000810E0000F18242438504F0008F888884B
:1017500088887000203F2000030C3020007088082B
:10176000080838000038202121221C00180808F839
:10177000080818000000203F2000000008F80800BA
:101780000008F808001F202020201F00087888008B
:1017900000C83808000007380E010000F80800F8FB
:1017A0000008F800033C0700073C030008186880A5
:1017B0008068180820302C03032C30200838C8001B
:1017C000C83808000000203F20000000100808086A
:1017D000C83808002038262120201800000000FE0C
:1017E000020202000000007F40404000000C30C0B8
:1017F00000000000000000010638C00000020202E4
:10180000FE000000004040407F0000000000040295
:1018100002020400000000000000000000000000C0
:1018200000000000808080808080808000020204B0
:1018300000000000000000000000000000008080A8
:10184000808000000019242222223F2008F8008016
:1018500080000000003F112020110E0000000080D9
:1018600080800000000E1120202011000000008068
:101870008088F800000E112020103F20000080809A
:1018800080800000001F222222221300008080F0AE
:10189000888888180020203F2020000000008080D9
:1018A00080808000006B94949493600008F800801E
:1018B00080800000203F210000203F200080989879
:1018C000000000000020203F2020000000000080D9
:1018D0009898000000C08080807F000008F8000019
:1018E00080808000203F24022D302000000808F86E
:1018F000000000000020203F202000008080808029
:1019000080808000203F20003F20003F80800080BA
:1019100080800000203F210000203F2000008080C8
:1019200080800000001F202020201F008080008079
:101930008000000080FFA12020110E000000008028
:1019400080808000000E112020A0FF808080800019
:101950008080800020203F21200001000000808046
:10196000808080000033242424241900008080E03B
:10197000808000000000001F202000008080000008
:1019800000808000001F202020103F2080808000E9
:101990000080808000010E300806010080800080F9
:1019A000008080800F300C030C300F00008080001E
:1019B000808080000020312E0E3120008080800049
:1019C0000080808080818E701806010000808080F9
:1019D000808080000021302C222130000000000097
:1019E000807C020200000000003F40400000000038
:1019F000FF00000000000000FF0000000002027C69
:101A0000800000000040403F00000000000601018F
:101A10000202040400000000000000001060028CBC
:101A20000000FE9292929292FE00000004047E0159
:101A3000407E42427E427E42427E40000000FC24C4
:101A40002424FC252624FC242424040040308F80F8
:101A5000844C55252525554C808080001060028CD3
:101A600000FE929292929292FE00000004047E0187
:101A70004448507F40407F50484440000004047474
:101A80005454555654545474040400008483412122
:101A90001D05050505057D818185E3004040424423
:101AA00058C0407F40C050484640400080804020A1
:101AB00018070000003F40404040780000FE4242CE
:101AC00042FE0042A29E82A2C2BE0000806F0808B1
:101AD00028CF00002FC8080828CF00000004047495
:101AE00054545556545454740404000084834121C2
:101AF0001D05050505057D818185E3001010D0FFDA
:101B00009014E4AFA4A4A4AFE4040000040300FF15
:101B100000894B2A1A0E1A2A4B88800010109090C8
:101B20009090901010FF10101116100000206020EF
:101B30003F10101000030C102040F800000000F8C7
:101B4000888C8A89888888F800000000000000FFDF
:101B500044444444444444FF000000004044C4441E
:101B60004444401010FF101010F00000103C1310FF
:101B700014B840300E014080403F00000000242493
:101B8000242424FC2222222322000000020202023A
:101B90000242827F02020202020202004044C44466
:101BA0004444401010FF101010F00000103C1310BF
:101BB00014B840300E014080403F0000040404840B
:101BC000E43C2724242424E4040404000402010047
:101BD000FF0909090949897F000000000000000091
:101BE0000000C03FC0000000000000008040201046
:101BF0000C03000000030C10204080000040424213
:101C000042C27E42C2424242404000008040201018
:101C10000C0300003F404040407000000000000006
:101C20000000C03FC0000000000000008040201005
:101C30000C03000000030C1020408000003E22E254
:101C4000223E00FE2222222222E20200203F201F0A
:101C50001111007F4444444444474000040404F408
:101C600084D4A5A6A4D484F40404040000FE0202D3
:101C7000123A1613121A3242827E000000000080CF
:101C80008080BCFCFCBC8080800000000000000064
:101C900000003E03033E000000000000000022326E
:101CA0002AA6A2622111098101000000004222132C
:101CB0000B42827E02020A12234600002030AC63EF
:101CC000300088C8A8998E88A8C888002267221288
:101CD000128040300F00003F40407100404042CC35
:101CE0000040A09E8282829EA02020000000003F33
:101CF000908840432C10284641808000001715D55D
:101D00005557557D555755D5151700004040407F14
:101D1000555555555555557F40404000000000FE33
:101D2000929292FE929292FE0000000008080484B3
:101D3000621E010001FE0204040808000202E22201
:101D400022F22E2222E22222E20202000000FF40C2
:101D5000407F4949497F4040FF00000000F80122D0
:101D6000A0A2A222FE22AA3202FE000000FF001062
:101D7000130A4B20170C133880FF0000008060F816
:101D80000704E4A4A4BFA4A4E4040000010000FF2D
:101D900040407F4A4A4A4A4A7F40400000FC8484CF
:101DA00084FC001010101010FF101000003F1010E5
:101DB000103F0000010640807F00000000F801068F
:101DC00000F0121212F2020202FE000000FF0000F8
:101DD000001F1111111F0040807F000000504CC8EF
:101DE00078C84800F88888F8000000000002013E2A
:101DF0002A2A2B2A2A2A3E00000000000010D8546C
:101E000050D8003C504844600000000000003F05EE
:101E1000253F001F28242238000000000000004059
:101E2000605048444040405060C000000000000046
:101E30003F111111111111113F000000000000E0CD
:101E400000FC4020080808F80808000000000020F6
:101E5000180708300020203F000000007C1E00080A
:101E6000000000201C000000EC110008981E000873
:101E70001C00002004040000FC1100080000000009
:101E80000000000000000000000000000000000052
:081E9000000046321E050000AF
:04000005080000ED02
:00000001FF
