:020000040800F2
:100000006004002045010008F52B0008F72B0008CC
:10001000FB2B0008FF2B0008032C00080000000049
:10002000000000000000000000000000072C000895
:10003000092C0008000000000B2C0008372F0008D6
:100040005B0100085B0100085B0100085B01000820
:100050005B0100085B0100085B010008CD3500086A
:100060005B0100085B0100085B0100085B01000800
:100070005B0100085B0100085B0100085B010008F0
:100080005B0100085B0100085B0100085B010008E0
:100090005B0100085B0100085B0100085B010008D0
:1000A0005B0100085B0100085B0100085B010008C0
:1000B0000D2C00085B0100085B0100085B010008D3
:1000C0005B0100085B0100085B0100085B010008A0
:1000D0005B0100085B0100085B0100085B01000890
:1000E0005B0100085B0100085B0100085B01000880
:1000F0005B0100085B0100085B0100085B01000870
:100100005B0100085B0100085B0100085B0100085F
:100110005B0100085B0100085B0100085B0100084F
:100120005B0100085B0100085B0100085B0100083F
:10013000DFF80CD003F038FB00480047DD29000849
:100140006004002005480047FEE7FEE7FEE7FEE703
:10015000FEE7FEE7FEE7FEE7FEE7FEE73101000807
:10016000704710B53648006840F001003449086017
:1001700008464068334908403149486008460068ED
:10018000314908402E4908600846006820F4802064
:1001900008600846406820F4FE0048604FF41F00E5
:1001A0008860FFF7DDFF4FF000602849086010BD50
:1001B00010B5002100200022214B5B6803F00C01E8
:1001C00021B1042906D0082928D107E0204B214C71
:1001D000236027E01E4B1F4C236023E0184B5B6815
:1001E00003F47010164B5B6803F48032022303EBB8
:1001F000904022B9184B4343164C23600DE0104B3E
:100200005B6803F4003323B1134B4343114C236069
:1002100003E00F4B43430F4C236003E00C4B0D4CAA
:10022000236000BF00BF064B5B68C3F303130B4C96
:10023000E15C084B1B68CB40064C236010BD0000FE
:10024000001002400000FFF8FFFFF6FE08ED00E09E
:1002500000127A000000002000093D000400002088
:1002600031490143314A1160704770B500210023C4
:100270000F22C47804B32D4C246804F4E064C4F560
:10028000E064210AC1F10403CA40447804FA03F18E
:100290008478144021430901254C0678A15504783F
:1002A00004F01F050124AC4005786D11AD0005F187
:1002B000E025C5F8004109E0047804F01F05012499
:1002C000AC401C4D0678761145F8264070BD1A4AA0
:1002D0000A400243154B1B1F1A60704739B1134A7D
:1002E000121D12680243114B1B1D1A6006E00F4AD3
:1002F000121D126882430D4B1B1D1A6070470428A3
:1003000008D14FF0E021096941F004014FF0E022EB
:10031000116107E04FF0E021096921F004014FF07D
:10032000E0221161704700000000FA050CED00E0CA
:1003300000E400E080E100E080FFFF1F10B504460C
:10034000FA48844208D10121401501F0EBF900215F
:10035000601501F0E7F917E0F548844208D1012162
:10036000001501F0DFF90021201501F0DBF90BE0A9
:10037000F048844208D10121C80301F0D3F90021DB
:100380004FF4004001F0CEF910BD30B50246002018
:1003900000235068E84C20400D790C6844EA05249D
:1003A000204350609068E54C2040D1E902542C4332
:1003B0004D7944EA450420439060D06A20F47000EF
:1003C0000C7C641EE4B2234340EA0350D06230BD8B
:1003D00000210160017141718160C16001210174DE
:1003E000704721B1826842F00102826003E08268B6
:1003F00022F001028260704721B1826842F480726B
:10040000826003E0826822F480728260704710B5D7
:100410000023CBB21AB144681C43446002E0446834
:100420009C43446010BD816841F0080181607047C1
:10043000014600208A6802F008020AB1012000E0AB
:1004400000207047816841F00401816070470146D7
:1004500000208A6802F004020AB1012000E00020B6
:10046000704721B1826842F4A002826003E0826892
:1004700022F4A00282607047014600208A6802F4DC
:1004800080020AB1012000E00020704710B50A4642
:1004900000210023416821F46041531E41EA4331A9
:1004A000416010BD21B1426842F40062426003E045
:1004B000426822F4006242607047F0B504460D467F
:1004C00000200021092D11DDE068A5F10A0606EBE8
:1004D0004607072606FA07F18843A5F10A0606EB48
:1004E000460603FA06F10843E0600CE0206905EBDC
:1004F0004507072606FA07F1884305EB450603FA88
:1005000006F108432061072A0FDA606B561E06EBDE
:1005100086071F2606FA07F18843561E06EB860655
:1005200005FA06F10843606322E00D2A0FDA206B1A
:10053000D61F06EB86071F2606FA07F18843D61F4B
:1005400006EB860605FA06F10843206310E0E06A30
:10055000A2F10D0606EB86071F2606FA07F188436F
:10056000A2F10D0606EB860605FA06F10843E062E5
:10057000F0BD21B1826842F48012826003E082689B
:1005800022F48012826070470146C86C80B27047C6
:1005900066484C300068704721B1426842F480627E
:1005A000426003E0426822F480624260704721B1F9
:1005B000426842F48052426003E0426822F4805272
:1005C000426070470A460021816821F4E0411143EE
:1005D0008160704721B1826842F40042826003E08A
:1005E000826822F400428260704721B1826842F43E
:1005F0000212826003E0826822F402128260704775
:10060000014600208A6802F400120AB1012000E0CD
:1006100000207047F0B50446154600200022002651
:10062000092911DDE068A1F10A0707EB470C07274C
:1006300007FA0CF29043A1F10A0707EB470703FA08
:1006400007F21043E0600CE0206901EB410C072742
:1006500007FA0CF2904301EB410703FA07F210434B
:100660002061A06BC0F30156EF1C06F1010CA7EB53
:100670000C0707EB870C1F2707FA0CF29043EF1CBF
:1006800006F1010CA7EB0C0707EB870701FA07F24D
:100690001043A063F0BD10B50A4600210023816B12
:1006A00021F44011531E41EA0351816310BD08B586
:1006B000002300930090009B0B440093009B1A6062
:1006C00008BD08B5024600200090009201F1280004
:1006D000009B184400900098006880B208BD0A464C
:1006E00000214168164B1940114341607047416237
:1006F000826270470A460021416821F01F011143C0
:100700004160704740B109490831096841F400016E
:10071000064A0832116007E004490831096821F4EB
:100720000001024A083211607047000000240140B5
:1007300000280140003C0140FFFEF0FFFDF7F1FF03
:10074000FFFD3FFF0246002013680B400BB1012064
:1007500000E000207047CA430260704770B502464F
:100760000020002300240B125568CEB205EA0604CF
:1007700015681D4015B10CB1012000E0002070BDCE
:1007800000220A12D34303607047000001684FF64D
:10079000FE72114001600021016041608160C16012
:1007A0008D49884208D18C490839496841F00F01C8
:1007B000894A083A51608AE087491431884208D151
:1007C00085490839496841F0F001834A083A516087
:1007D0007DE081492831884208D17F49083949683C
:1007E00041F470617C4A083A516070E07A493C31CA
:1007F000884208D178490839496841F47041764AFD
:10080000083A516063E074495031884208D1724916
:100810000839496841F470216F4A083A516056E03E
:100820006D496431884208D16B490839496841F4FF
:100830007001694A083A516049E067497831884255
:1008400008D165490839496841F07061624A083A3F
:1008500051603CE06149884206D1011F096841F0BE
:100860000F01021F116032E05C491431884208D147
:100870005A49091F096841F0F001584A121F1160D6
:1008800025E056492831884208D15449091F096892
:1008900041F47061514A121F116018E04F493C3118
:1008A000884208D14D49091F096841F470414B4AFB
:1008B000121F11600BE049495031884207D1474966
:1008C000091F096841F47021444A121F11607047E2
:1008D00010B50022026847F6F0739A430C6A8B68E1
:1008E00023430C6923434C6923438C692343CC691C
:1008F00023434C6A23438C6A23431A430260CB6828
:1009000043600B6883604B68C36010BD00210160C9
:1009100041608160C160016141618161C1610162C9
:1009200041628162704721B1026842F001020260B7
:1009300004E002684FF6FE731A40026070471AB175
:1009400003680B43036002E003688B430360704756
:10095000416070470146486880B2704701460020F8
:10096000002201F080531BB11C4B083B1A6802E0C7
:10097000194B083B1A6802EA01030BB1012000E0A1
:100980000020704700F0805119B11449091F086018
:1009900002E01149083948607047014600200022F2
:1009A00001F080531BB10D4B083B1A6802E00A4B63
:1009B000083B1A6802EA01030BB1012000E00020A5
:1009C000704700F0805119B10449091F086002E026
:1009D0000149083948607047080002400804024095
:1009E000002044490860091D0860091D0860091DB0
:1009F000086041483F4914310860704700213D4973
:100A00008279002A3AD00A46126803689A430B4654
:100A10001A600A1D126803689A430B1D1A60027956
:100A200011440A6803681A430A60324A083212689D
:100A300003689A432F4B08331A601A1D1268036823
:100A40009A432C4B0C331A604279102A0ED11A1F8C
:100A5000126803681A43274B08331A601A1D12687C
:100A600003681A43234B0C331A600DE02149427985
:100A700011440A6803681A430A6005E002791144C8
:100A80000A6803689A430A60704700210160017197
:100A90000C2141710021817170471649103109689C
:100AA0000143144A10321160704701460020114A78
:100AB000143212680A400AB1012000E00020704799
:100AC0000C49143108607047014600200022094B90
:100AD0001B6803EA0102074B14331B680B4013B178
:100AE0000AB1012000E0002070470249143108607B
:100AF0007047000000040140FFFF0F000146002086
:100B0000FE4A106800F03800084310607047FB4947
:100B1000096821F00801F94A11601146096801438A
:100B200011607047F549096821F01001F34A11601E
:100B300011460968014311607047F148EF49486068
:100B4000F04848607047EE48EC494860ED4848601E
:100B50007047EA48006940F08000E8490861704742
:100B6000E648006940F08000E449086170470420CD
:100B7000E249C96801F0010109B101200EE0DF4935
:100B8000C96801F0040109B1022007E0DB49C96826
:100B900001F0100109B1032000E00420704700B506
:100BA00002460423FFF7E3FF034603E0FFF7DFFFFE
:100BB0000346521E012B01D1002AF7D102B90523A9
:100BC000184600BD30B5044604254FF43020FFF729
:100BD000E6FF0546042D17D1C848006940F0020021
:100BE000C649086108464461006940F04000086158
:100BF0004FF43020FFF7D3FF0546C048006941F6A7
:100C0000FD710840BD490861284630BD10B5042477
:100C10004FF43020FFF7C3FF0446042C16D1B74829
:100C2000006940F00400B54908610846006940F0D9
:100C3000400008614FF43020FFF7B1FF0446AF4891
:100C4000006941F6FB710840AC490861204610BDBF
:100C500000B502460423FFF78AFF034603E0FFF7CF
:100C600086FF0346521E012B01D1002AF7D102B99B
:100C70000523184600BD10B504244FF43020FFF7BB
:100C8000E7FF0446042C16D19C48006940F004009C
:100C90009A4908610846006940F0400008614FF435
:100CA0003020FFF7D5FF04469448006941F6FB71F8
:100CB000084092490861204610BD00208F49C9694B
:100CC00001F0020109B1012000E00020704730B5B9
:100CD000A5250424FFF7F1FF00B100254FF43020D3
:100CE000FFF75DFF0446042C3AD1854883498860AC
:100CF000844888600846006940F020000861084682
:100D0000006940F0400008614FF43020FFF747FFD2
:100D10000446042C1BD17948006941F6DF71084074
:100D2000764908610846006940F01000086176487D
:100D30000580E002FFF733FF0446052C10D06F4812
:100D4000006941F6EF7108406C49086108E0052C24
:100D500006D06A48006941F6EF71084067490861AA
:100D6000204630BD78B506460C460425002000908C
:100D7000E802FFF714FF0546042D24D15F480069FF
:100D800040F001005D4908613480E802FFF707FF89
:100D90000546042D10D1B01C0090200C009908804D
:100DA000E802FFF7FCFE05465448006941F6FE7173
:100DB00008405249086106E05048006941F6FE715A
:100DC00008404E490861284678BD70B504460D4676
:100DD0000426F002FFF7E3FE0646042E11D1474831
:100DE000006940F00100454908612580F002FFF7E5
:100DF000D6FE06464148006941F6FE7108403F496B
:100E00000861304670BD70B505460E460424E00208
:100E1000FFF7C5FE0446042C17D1394837498860CE
:100E2000384888600846006940F0100008612E804C
:100E3000E002FFF7B4FE0446052C06D02F480069F7
:100E400041F6EF7108402D490861204670BD2DE93B
:100E5000F04304464FF6FF763746B046B1460425C8
:100E6000E443E6B2C4F30727C4F307484FEA146922
:100E7000E802FFF794FE0546042D49D120481F499A
:100E80008860204888600846006940F010000861CA
:100E9000FF2E06D01C4808300680E802FFF77FFED0
:100EA0000546042D08D1FF2F06D017480A300780C9
:100EB000E802FFF774FE0546042D0AD1B8F1FF0FD2
:100EC00007D011480C30A0F80080E802FFF767FE59
:100ED0000546042D0AD1B9F1FF0F07D00A480E309C
:100EE000A0F80090E802FFF75AFE0546052D0FD046
:100EF0000248006941F6EF71084007E00020024017
:100F000023016745AB89EFCD00F8FF1F66490861F3
:100F10002846BDE8F08330B5054604244FF4302060
:100F2000FFF73DFE0446042C41D160485E498860CD
:100F30005F4888600846006940F020000861084664
:100F4000006940F0400008614FF43020FFF727FEB1
:100F50000446042C22D15448006941F6DF71084050
:100F6000514908610846006940F0100008611DB150
:100F700000205049088002E0A5204E4908804FF427
:100F80003020FFF70CFE0446052C10D046480069BF
:100F900041F6EF7108404449086108E0052C06D08D
:100FA0004148006941F6DF7108403F490861204629
:100FB00030BDF0B505460E46174604243B483A4975
:100FC00088603B488860E002FFF7E9FD0446042C96
:100FD00019D13548006940F010003349086147F0E5
:100FE000F800304328433349891C0880E002FFF7AA
:100FF000D6FD0446052C06D02B48006941F6EF715A
:101000000840294908612046F0BD2748C06980088A
:1010100070472548006A704700202349096801F09D
:10102000200109B1012000E00020704729B11E4ACB
:10103000126902431C4B1A6104E01B4A1269824385
:10104000194B1A61704701460020012908D1164A40
:10105000D26902F001020AB1012008E0002006E096
:10106000114AD2680A400AB1012000E0002070470E
:101070000D49C860704704200B49C96801F001019F
:1010800009B101200EE00849C96801F0040109B165
:10109000022007E00449C96801F0100109B10320EA
:1010A00000E0042070470000002002402301674553
:1010B000AB89EFCD00F8FF1F10B50446CC48844241
:1010C00008D10121042000F02DFB0021042000F0B4
:1010D00029FB46E0C748844208D10121082000F0DE
:1010E00021FB0021082000F01DFB3AE0C2488442A9
:1010F00008D10121102000F015FB0021102000F084
:1011000011FB2EE0BD48844208D10121202000F0CF
:1011100009FB0021202000F005FB22E0B8488442B2
:1011200008D10121402000F0FDFA0021402000F00C
:10113000F9FA16E0B348844208D10121802000F07A
:10114000F1FA0021802000F0EDFA0AE0AE48844276
:1011500007D10121801500F0E5FA0021A01500F06B
:10116000E1FA10BD10B50121084600F0DBFA0021BC
:10117000012000F0D7FA10BD2DE9F041024600250C
:101180000026002000230024002791F803C00CF063
:101190000F0591F803C00CF0100CBCF1000F03D048
:1011A00091F802C04CEA050591F800C0BCF1000FAF
:1011B00031D0146800202BE04FF0010C0CFA00F342
:1011C000B1F800C00CEA03069E4220D183004FF024
:1011D0000F0C0CFA03F7BC4305FA03FC4CEA0404B9
:1011E00091F803C0BCF1280F06D14FF0010C0CFAA6
:1011F00000FCC2F814C00AE091F803C0BCF1480F2B
:1012000005D14FF0010C0CFA00FCC2F810C0401CD4
:101210000828D1D31460B1F800C0BCF1FF0F34DD51
:10122000546800202EE000F1080C4FF0010808FA85
:101230000CF3B1F800C00CEA03069E4221D18300F2
:101240004FF00F0C0CFA03F7BC4305FA03FC4CEA11
:10125000040491F803C0BCF1280F05D100F1080C7B
:1012600008FA0CF8C2F8148091F803C0BCF1480FDA
:1012700007D100F1080C4FF0010808FA0CF8C2F889
:101280001080401C0828CED35460BDE8F0814FF692
:10129000FF710180022181700421C17070470246F4
:1012A000002093680B400BB1012000E00020704744
:1012B0000146886880B2704702460020D3680B4020
:1012C0000BB1012000E0002070470146C86880B2E1
:1012D000704701617047416170470AB1016100E0E8
:1012E00041617047C16070474FF480320A438261A8
:1012F0008161826182698269704702460020434BA6
:1013000018684FF68073184040EA021008433F4BBC
:10131000186070473E49C8617047F0B50A4600231F
:1013200000240021002500F00046B6F1004F02D154
:10133000364EF16901E0354E7168C0F3034583B262
:1013400000F44016B6F5401F08D121F070612F4E11
:10135000766826F070662D4F7E6012E000F48016ED
:10136000B6F5801F06D1032606FA05F4A14341F025
:10137000706106E0460D360103FA06F6B14341F00E
:10138000706122B1460D360103FA06F6314300F0D2
:101390000046B6F1004F02D11C4EF16101E01B4E38
:1013A0007160F0BD30B500228B071C0F0F2303FACC
:1013B00004F2164B08338C1053F824309343134C2B
:1013C00008348D1044F8253023468C1053F824300F
:1013D0008C07240F00FA04F423430C4C08348D10BE
:1013E00044F8253030BD0A49DC3108607047000000
:1013F00000080140000C01400010014000140140B1
:1014000000180140001C0140002001400000014084
:1014100000002042DF48006840F00100DD4908601C
:1014200008464068DC490840DA49486008460068D8
:10143000DA490840D74908600846006820F480204F
:1014400008600846406820F4FE0048604FF41F0022
:1014500088607047CF49096821F48031CD4A116016
:101460001146096821F480211160B0F5803F03D056
:10147000B0F5802F0ED106E0C649096841F48031ED
:10148000C44A116007E0C349096841F4A021C14A78
:10149000116000E000BF00BF704710B50146002298
:1014A000002300204A11012A02D1BA4C236806E029
:1014B000022A02D1B74C236A01E0B64C636A01F0FC
:1014C0001F02012494401C400CB1012000E00020C8
:1014D00010BD38B5002000900024002500BF312049
:1014E000FFF7DBFF05460098401C00900098B0F520
:1014F000A06F01D0002DF2D03120FFF7CEFF08B150
:10150000012400E00024204638BD01460020A14A05
:10151000106820F0F80040EAC10010607047A04950
:1015200008607047024600209A4B586820F47C10EF
:1015300042EA01031843974B586070479849086680
:10154000704701460020934A506820F0030008438A
:10155000506070478F48406800F00C0070470146AB
:1015600000208C4A506820F0F0000843506070471B
:1015700001460020874A506820F4E060084350602C
:10158000704701460020834A506820F4605040EACA
:10159000C1005060704729B17E4A527A02437D4BA8
:1015A0005A7204E07B4A527A82437A4B5A727047ED
:1015B0007B49D8310860704701460020754A506861
:1015C00020F440400843506070470021714A2032A7
:1015D0001170704A82F82010012802D004280AD124
:1015E00004E001216B4A2032117005E00521694AAF
:1015F0002032117000E000BF00BF704769490860E9
:1016000070476449096A0143624A1162704765493B
:1016100044390860704730B50021002200240023BF
:101620005C4D6D6805F00C0121B1042905D0082935
:1016300023D105E05C4D056022E05B4D05601FE0B5
:10164000544D6D6805F47012524D6D6805F4803488
:10165000022505EB92421CB9544D554305600BE041
:101660004C4D6D6805F400351DB1504D5543056076
:1016700002E04D4D5543056002E04B4D056000BF53
:1016800000BF444D6D6805F0F0010909484D6B5CE1
:101690000568DD4045603F4D6D6805F4E061090A6D
:1016A000434D6B5C4568DD4085603A4D6D6805F4DF
:1016B0006051C90A3E4D6B5C4568DD40C560354DE3
:1016C0006D6805F44041890B3A4D6B5CC568B5FB0C
:1016D000F3F5056130BD29B12E4A526902432D4B05
:1016E0005A6104E02B4A526982432A4B5A6170477F
:1016F00029B1284A92690243264B9A6104E0254A9F
:1017000092698243234B9A61704729B1214AD26979
:101710000243204BDA6104E01E4AD26982431D4B2A
:10172000DA61704729B11B4AD2680243194BDA606B
:1017300004E0184AD2688243164BDA60704729B138
:10174000144A12690243134B1A6104E0114A1269E8
:101750008243104B1A617047124940390860704744
:101760000F49C86470470B49C87170470948406AFF
:1017700040F0807007494862704701460020054AE2
:1017800092680A400AB1012000E000207047014938
:1017900088727047001002400000FFF8FFFFF6FE5D
:1017A000000042428004424200127A0000093D00DB
:1017B000140000202400002010B50446FE48844296
:1017C00008D10121C014FFF7ADFF0021E014FFF79D
:1017D000A9FFC4E0B4F1804F08D101210846FFF70A
:1017E000AEFF00210120FFF7AAFFB8E0F3488442D2
:1017F00008D101210220FFF7A2FF00210220FFF7FC
:101800009EFFACE0EE48844208D101210420FFF79E
:1018100096FF00210420FFF792FFA0E0E9488442F0
:1018200008D101210820FFF78AFF00210820FFF7D7
:1018300086FF94E0E448844208D101211020FFF79C
:101840007EFF00211020FFF77AFF88E0DF48844206
:1018500008D101212020FFF772FF00212020FFF78F
:101860006EFF7CE0DA48844208D101214014FFF782
:1018700059FF00216014FFF755FF70E0D5488442FE
:1018800009D10121C804FFF74DFF00214FF40020CA
:10189000FFF748FF63E0D048844209D101210805E1
:1018A000FFF740FF00214FF48010FFF73BFF56E0A9
:1018B000CA48844209D101214805FFF733FF0021BE
:1018C0004FF40010FFF72EFF49E0C548844208D1CD
:1018D00001214020FFF733FF00214020FFF72FFFB9
:1018E0003DE0C048844208D101218020FFF727FF56
:1018F00000218020FFF723FF31E0BB48844208D15C
:1019000001218015FFF71BFF0021A015FFF717FF2E
:1019100025E0B648844209D101210804FFF702FFFF
:1019200000214FF48030FFF7FDFE18E0B0488442FC
:1019300009D101214804FFF7F5FE00214FF40030E2
:10194000FFF7F0FE0BE0AB48844208D10121880488
:10195000FFF7E8FE00214FF48020FFF7E3FE10BD03
:1019600000220288944B98420ED0994B98420BD09B
:10197000B0F1804F08D0914B984205D0904B9842DF
:1019800002D0904B984204D14FF68F731A404B8887
:101990001A438D4B984207D08C4B984204D04FF697
:1019A000FF431A40CB881A4302808B8883850B88BB
:1019B0000385814B98420BD0854B984208D08B4BC6
:1019C000984205D08A4B984202D08A4B984201D166
:1019D0000B7A038601238382704770B500240022AE
:1019E0000023058C4FF6FE7635400584028C8388F3
:1019F000048B4FF68F752C40B51E2C400D882C4360
:101A0000751E2A400D892A434D882A436A4DA842F3
:101A10000BD06F4DA84208D0744DA84205D0744D2C
:101A2000A84202D0734DA84213D14FF6F7752A4051
:101A30004D892A434FF6FB752A408D882A434FF67D
:101A4000FF652B404FF6FF552B408D892B43CD89E9
:101A50002B4383800483CD888586028470BD70B556
:101A6000002400220023058C4FF6EF7635400584D4
:101A7000028C8388048B48F6FF752C404FF6FF4597
:101A80002C400D884FF6FF7606EA05252C434FF6CD
:101A9000DF752A400D8906EA05152A434D8806EAB6
:101AA00005152A43444DA84202D0494DA8421DD1F4
:101AB0004FF67F752A404D894FF6FF7606EA0515E9
:101AC0002A434FF6BF752A408D8806EA05152A433A
:101AD0004FF6FF352B404FF2FF752B408D8906EAFC
:101AE00085052B43CD8906EA85052B438380048336
:101AF000CD880587028470BD70B5002400220023C4
:101B0000058C4FF6FF6635400584028C8388848BF4
:101B10004FF68F752C404FF6FC752C400D882C43EA
:101B20004FF6FF552A400D894FF6FF7606EA052548
:101B30002A434D8806EA05252A431F4DA84202D0B4
:101B4000234DA8421DD14FF2FF752A404D894FF613
:101B5000FF7606EA05252A434FF6FF352A408D8891
:101B600006EA05252A434EF6FF752B404DF6FF7514
:101B70002B408D8906EA05152B43CD8906EA05150C
:101B80002B4383808483CD888587028470BD70B5A4
:101B9000002200230024058C4EF6FF763540058494
:101BA000038C8488828B48F6FF752A404FF6FF45E8
:101BB0002A400D8820E00000002C01400004004075
:101BC00000080040000C00400010004000140040DD
:101BD00000340140004C01400050014000540140DD
:101BE00000180040001C0040002000400040014060
:101BF00000440140004801404FF6FF7606EA052503
:101C00002A434DF6FF752B400D8906EA05352B4317
:101C10004D8806EA05352B43FA4DA84202D0FA4D0D
:101C2000A84208D14BF6FF752C408D894FF6FF7600
:101C300006EA85152C4384808283CD88A0F8405025
:101C4000038470BD828B4FF2FF331A408283828BF4
:101C50004FF6FF7303EA01231A4382837047F0B5FE
:101C60000C461546002200210026078C4EF6FF7C0C
:101C700007EA0C070784828B018C4FF6FF7707EA8F
:101C8000043640F6FF473A404FF6FF7707EA05274C
:101C90003A434FF6FF7707EA03373A43D94FB84242
:101CA0000ED0D94FB8420BD0B0F1804F08D0D74FEB
:101CB000B84205D0D64FB84202D0D64FB84206D16E
:101CC0004DF6FF77394046F48057394305E047F633
:101CD000FF57394044F48057394382830184F0BD73
:101CE000828B4FF6F3731A408283828B0A4382837E
:101CF0007047F0B50C461546002200210026078CDF
:101D00004FF6FF6C07EA0C070784828B018C4FF6B5
:101D1000FF7707EA04264FF60C773A404FF6FF7735
:101D200007EA03172F433A43B64FB8420ED0B64FD7
:101D3000B8420BD0B0F1804F08D0B44FB84205D0B4
:101D4000B34FB84202D0B34FB84206D14FF6FF5757
:101D5000394046F48077394305E04FF2FF57394068
:101D600044F48077394382830184F0BD028B4FF2C3
:101D7000FF331A400283028B4FF6FF7303EA0123FD
:101D80001A4302837047F0B50C4615460022002125
:101D90000026078C4FF6EF7C07EA0C070784028BBE
:101DA000018C4FF6FF7707EA041640F6FF473A40EA
:101DB0004FF6FF7707EA03373A434FF6FF7707EA14
:101DC00005273A438F4FB8420ED08F4FB8420BD001
:101DD000B0F1804F08D08D4FB84205D08C4FB8423B
:101DE00002D08C4FB84206D14FF6DF77394046F02B
:101DF0001007394305E04FF65F77394044F010078C
:101E0000394302830184F0BD028B4FF6F3731A400D
:101E10000283028B0A4302837047F0B50C461546D5
:101E200000220021068C4FF6FE773E400684028B8E
:101E3000018C4FF60C7632407E1C06EA03162E43C8
:101E40003243704EB0420ED06F4EB0420BD0B0F164
:101E5000804F08D06D4EB04205D06D4EB04202D0DA
:101E60006C4EB04206D14FF6FD76314044F001068B
:101E7000314305E04FF6F576314044F00106314339
:101E800002830184F0BD70B505460C465D4885426D
:101E90000ED05D4885420BD0B5F1804F08D05B482D
:101EA000854205D05A48854202D05A48854200D121
:101EB00000E000BF208850B92389A28861882846A5
:101EC000FFF7ABFFE1882846FFF79EFF25E020885B
:101ED00004280AD12389A28861882846FFF753FF86
:101EE000E1882846FFF742FF17E0208808280AD13A
:101EF0002389A28861882846FFF7FBFEE1882846EF
:101F0000FFF7EEFE09E02389A28861882846FFF7E3
:101F1000A6FEE1882846FFF795FE70BD2DE9F04149
:101F200005460C4600260127608808B9022600E015
:101F30000026A088012801D1022700E0012720887F
:101F4000A0B92389A28861882846FFF766FFE18847
:101F50002846FFF759FF23893A4631462846FFF7BE
:101F600012FFE1882846FFF701FF13E02389A288CA
:101F700061882846FFF707FFE1882846FFF7F6FE4D
:101F800023893A4631462846FFF747FFE18828462D
:101F9000FFF73AFFBDE8F0810A884B881A438B8827
:101FA0001A43CB881A430B891A434B891A438B89EE
:101FB0001A43A0F8442070474FF6FF71818000213A
:101FC0000180C18041800172704700210180418001
:101FD0008180C180018141818181C181704700215F
:101FE00001804180012181800021C18001817047F1
:101FF0000021018041808180C180018141818181F6
:1020000070470000002C01400034014000040040F3
:1020100000080040000C004021B1028842F001029B
:10202000028004E002884FF6FE731A400280704777
:1020300031B1B0F8442042F40042A0F8442005E059
:10204000B0F84420C2F30E02A0F8442070471AB141
:1020500083890B43838102E083898B4383817047AB
:102060008182704741EA0203A0F8483070471AB1F4
:1020700083890B43838102E083898B43838170478B
:1020800001894FF6F8721140018170470A4600211C
:1020900001894FF68F73194011430181704730B5A4
:1020A00004460D4629462046FFF7F0FF208940F000
:1020B0000700208130BD2DE9F04104460D4616464B
:1020C0001F46602D06D13B46012231462046FFF7D0
:1020D0005AFE05E03B46012231462046FFF79DFEB1
:1020E00029462046FFF7D2FF208940F007002081D3
:1020F000BDE8F08130B50C4600210189C9B24FF628
:10210000FF7505EA0325154325432943018130BDA9
:102110002DE9F04105460E461746984600244346F1
:102120003A4631462846FFF7E5FF2C894FF6F8700E
:10213000044044F007044FF68F70044044F07004EC
:102140002C81BDE8F081F0B504460D4616461F46C9
:102150003B46324629462046FFF7CCFF208940F413
:1021600080402081F0BD0185828270470A460021AF
:1021700001884FF68F731940114301807047F0B505
:102180000C4615461E460021002200230189028BC1
:10219000038C4FF6F877394021434FF6FC473A401D
:1021A00040F201173A434FF6DD773B404FF6FF7799
:1021B00007EA06172F433B43018102830384F0BDE6
:1021C0000A460021018B4FF68F731940114301839A
:1021D00070470A460021018B48F6FF7319404FF6FD
:1021E000FF7303EA02231943018370470A46002163
:1021F000818B4FF68F7319401143818370470A46D4
:102200000021818B48F6FF7319404FF6FF7303EAF4
:10221000022319438183704721B1028842F0800272
:10222000028004E002884FF67F731A4002807047F4
:1022300021B1828842F00402828004E082884FF655
:10224000FB731A408280704721B1828842F00802F5
:10225000828004E082884FF6F7731A4082807047CC
:1022600021B1828842F00102828004E082884FF628
:10227000FE731A40828070470A460021018B4FF698
:10228000F77319401143018370470A460021018BFF
:102290004FF2FF7319404FF6FF7303EA022319430D
:1022A000018370470A460021818B4FF6F77319406E
:1022B0001143818370470A460021818B4FF2FF73DF
:1022C00019404FF6FF7303EA0223194381837047D5
:1022D0000A460021018B4FF6FB731940114301831D
:1022E00070470A460021018B4FF6FF3319404FF625
:1022F000FF7303EA02231943018370470A46002152
:10230000818B4FF6FB7319401143818370470A4656
:102310000021818B4FF6FF3319404FF6FF7303EA1C
:1023200002231943818370470A460021018B4FF62F
:102330007F7319401143018370470A460021018BC6
:10234000C1F30E014FF6FF7303EA02231943018321
:1023500070470A460021818B4FF67F731940114365
:10236000818370470A460021818BC1F30E014FF62D
:10237000FF7303EA02231943818370470A46002151
:10238000018C4FF6FD7319401143018470470A46D2
:102390000021018C4FF6F7731940114301847047F7
:1023A0000A460021018C4FF6DF7319404FF6FF7388
:1023B00003EA02131943018470470A460021018C85
:1023C0004FF67F7319404FF6FF7303EA0213194368
:1023D000018470470A460021018C4FF6FF531940D3
:1023E0004FF6FF7303EA02231943018470470A463C
:1023F0000021018C4FF2FF7319404FF6FF7303EA7F
:1024000002231943018470470A460021018C4DF6CE
:10241000FF7319404FF6FF7303EA02331943018437
:10242000704730B5002301248C40A3B2048C9C4338
:102430000484048C02FA01F5ADB22C43048430BD4F
:1024400030B5002304248C40A3B2048C9C43048444
:10245000048C02FA01F5ADB22C43048430BD70B592
:102460000346002000241846183001258D40ACB2E8
:102470001D8CA5431D8409B1082909D100EB610019
:10248000056825F0700505600568154305600EE0D8
:102490000D1FC5F34E052844056825F4E045056089
:1024A00005684FF6FF7606EA02263543056070BDE3
:1024B00021B1028842F00202028004E002884FF655
:1024C000FD731A400280704721B1028842F0040275
:1024D000028004E002884FF6FB731A4002807047C6
:1024E00021B1828842F08002828004E082884FF627
:1024F0007F731A408280704702884FF6F7731A4044
:10250000028002880A430280704782884FF68F73E8
:102510001A40828082880A438280704702894FF67F
:10252000F8731A40028102890A43028170470289C6
:102530004FF67F731A40028102890A430281704775
:102540008184704781857047818670470187704715
:1025500081877047A0F84010704702884FF6FF430C
:102560001A40028002880A43028070470146888E22
:1025700070470146088F70470146888F70470146B3
:10258000B1F8400070470146888C70470146088DBD
:10259000704702460020138A0B400BB1012000E077
:1025A00000207047CA430282704730B502460020BF
:1025B00000230024158A05EA0103958905EA010430
:1025C00013B10CB1012000E0002030BDCA430282EB
:1025D0007047000010B50446FB48844209D1012130
:1025E0008803FFF79FF800214FF48040FFF79AF827
:1025F00032E0F648844209D101214804FFF79FF8F0
:1026000000214FF40030FFF79AF825E0F0488442AB
:1026100009D101218804FFF792F800214FF48020AE
:10262000FFF78DF818E0EB48844209D10121C80476
:10263000FFF785F800214FF40020FFF780F80BE04A
:10264000E548844208D101210805FFF778F8002108
:102650004FF48010FFF773F810BD2DE9F04786B0F6
:1026600005460E460024A24600BFA1460027B089B9
:1026700000B100BF2F462C8A4CF6FF700440F08852
:1026800004432C82AC894EF6F3100440B0883189A3
:102690000843718908430443AC81AC8A4FF6FF407C
:1026A0000440B0890443AC8201A8FEF7B4FFC648D9
:1026B000874202D1DDF810A001E0DDF80CA0A88966
:1026C00000F4004040B10AEBCA0000EB0A10316888
:1026D0004900B0FBF1F807E00AEBCA0000EB0A1072
:1026E00031688900B0FBF1F86420B8FBF0F0040118
:1026F0002009642101FB1089A88900F4004040B141
:10270000322000EBC900B0FBF1F000F007000443F9
:1027100008E0322000EB09106421B0FBF1F000F07A
:102720000F0004432C8106B0BDE8F0874FF416512A
:10273000016000218180C18001810C214181002143
:102740008181704710B502460020108A4FF2FF03C6
:1027500018400B884C8823438C882343CC88234320
:102760001843108210BD0021018041808180C1800A
:10277000704721B1828942F40052828104E082894B
:102780004DF6FF731A4082817047F0B5034600246E
:1027900000260025002040F66A17B94200D100BF8C
:1027A0001846C1F3421401F01F06012707FA06F587
:1027B000012C01D10C3004E0022C01D1103000E0DA
:1027C00014301AB107682F43076002E00768AF436F
:1027D0000760F0BD1AB1838A0B43838202E0838ACB
:1027E0008B4383827047028A4FF6F0731A4002824D
:1027F000028A0A430282704782894FF2FF731A40AD
:10280000828182890A438281704721B1828942F0A4
:102810000202828104E082894FF6FD731A408281B0
:102820007047028A4FF6DF731A400282028A0A4317
:102830000282704721B1028A42F48042028204E09F
:10284000028A4BF6FF731A4002827047C1F30802F6
:102850008280704701468888C0F3080070478189EC
:1028600041F0010181817047028BD2B20283028B59
:1028700042EA012202837047028B02F47F42028304
:10288000028B0A430283704721B1828A42F0200200
:10289000828204E0828A4FF6DF731A408282704798
:1028A00021B1828A42F01002828204E0828A4FF6CD
:1028B000EF731A408282704721B1828A42F0080287
:1028C000828204E0828A4FF6F7731A408282704750
:1028D00021B1828942F40042828103E08289C2F3FD
:1028E0000E028281704721B1828A42F400628282A4
:1028F00004E0828A4FF2FF731A4082827047828A14
:102900004FF6FB731A408282828A0A4382827047A2
:1029100021B1828A42F00202828204E0828A4FF66A
:10292000FD731A408282704702460020B1F5007F95
:1029300000D100BF13880B400BB1012000E0002044
:10294000704701F40072B2F5007F00D100BFCA43A6
:102950000280704770B50246002400230025002045
:1029600040F66A16B14200D100BFC1F3421501F032
:102970001F03012606FA03F3012D02D19689334085
:1029800006E0022D02D1168A334001E0968A3340D8
:102990000C12012606FA04F41688344013B10CB167
:1029A000012000E0002070BD10B50022002340F699
:1029B0006A14A14200D100BF0A1201249440A3B2BC
:1029C000DC43048010BD000000380140004400409A
:1029D00000480040004C004000500040664800782D
:1029E00020F00100401C64490870002000F0F3F959
:1029F00000F09AFD00F0EDFAFA2000F074FA00F011
:102A0000A1F9FA2000F06FFA00F0D5FCFA2000F0EE
:102A10006AFA00F0E5FAFA2000F065FA00F03AFBF5
:102A200000F068FC00F091FCFA2000F05CFA53A280
:102A30000021084600F021FC4FF47A7000F053FAB0
:102A400000F083FC52A20021084600F016FC55A0BD
:102A500000F0BCFE2020564908608BE000F0B0FD7D
:102A600054490988084400B2524908800846B0F920
:102A70000000012810DBB1F9000000EBD071491013
:102A8000A0EB410121B94FF400704B49086103E00C
:102A90004FF40070484948613748007800F0010061
:102AA00038B33548007820F00100334908704348B6
:102AB000008800F013FE0646414900F09FFD0546E0
:102AC0004FF08B4100F0CCFD044600F00CFE3D4978
:102AD0000880084601883CA000F078FE394802884A
:102AE0003DA1434800F082FE414A0121002000F050
:102AF000C4FB344800881E2810DA4FF400702E49B9
:102B00000861401008618000086140202849086081
:102B10008020091F08602020086027E029480088DD
:102B2000322812DA4FF4007023490861401008611E
:102B30008000486140201E49091F08608020091D4F
:102B400008602020091F086010E04FF400701A4947
:102B50004861401048618000486140201449091FC5
:102B60000860802008602020091D08604FF4FA707A
:102B700000F0B9F972E70000280000202020202092
:102B800057656C636F6D65212020202000000000D8
:102B9000202020204465746563746F7220202020FB
:102BA000000000007265616479206F6B210D0A00DE
:102BB000140C01402C000020001001402A000020CD
:102BC0000000C8422E000020434F4E432E203A25DD
:102BD000326425250D0A0000202050657263656E61
:102BE00074203A2530326425252020200000000082
:102BF00050000020704700BFFEE700BFFEE700BFA7
:102C0000FEE700BFFEE770477047704710B501212F
:102C10008807FFF7CAFCA8B10B480078401C0A4996
:102C2000087008460078322808DB00200870074842
:102C3000007820F00100401C044908700121880739
:102C4000FFF7C4FC10BD0000300000202800002069
:102C500008B501210820FEF74BFD0120ADF800006A
:102C600000208DF8030069463948FEF785FA08BD53
:102C700000B591B001210846FEF72DFD0121480263
:102C8000FEF736FD3348FDF781FD334806903348A3
:102C90000790002008900120099000200A900B90D6
:102CA0004FF480700C9080000D9020200E90000258
:102CB0000F900020109006A92648FDF709FE01217B
:102CC0002448FDF730FE002001908DF80800012017
:102CD0008DF809004FF4602003900020049001203B
:102CE0008DF8140001A91C484C38FDF74EFB4FF439
:102CF0004040FEF761FC05230122082116484C38AC
:102D0000FDF7DBFB012114484C38FDF775FB012171
:102D100011484C38FDF765FB0F484C38FDF783FB35
:102D20000D484C38FDF78EFB00BF0B484C38FDF7C3
:102D30008EFB0028F9D1012107484C38FDF791FBA3
:102D400011B000BD10B5FFF783FFFFF791FF10BD75
:102D5000000C0140080002404C2401402A000020E1
:102D60001CB50446002001900090FEF753FB4FF481
:102D70008030FEF76FFBFEF7ACFB00900098012857
:102D800026D11020FDF7CEFE0220FDF7B7FE002071
:102D9000FEF7E5FB0020FEF7F4FB4FF48060FEF742
:102DA000E7FB21464FF48030FEF7BCFB0120FEF725
:102DB000C5FB00BF3920FEF770FB0028FAD00220C7
:102DC000FEF7BFFB00BFFEF7C5FB0828FBD101E003
:102DD00000BFFEE71CBD38B5044600200090FEF79A
:102DE00019FB0120FEF79BFB1848006800F0020069
:102DF00000900098022825D11020FDF793FE0220B4
:102E0000FDF77CFE0020FEF7AAFB0020FEF7B9FBD1
:102E10004FF48060FEF7ACFB21460020FEF782FBFA
:102E20000120FEF78BFB00BF3920FEF736FB0028A0
:102E3000FAD00220FEF785FB00BFFEF78BFB0828C7
:102E4000FBD101E000BFFEE738BD000000100240EA
:102E500030B50146B1F1807F01D3012030BD21F0B2
:102E60007F40401E4FF0E022506150170F22002893
:102E700007DA13071D0E324B00F00F04241F1D55F7
:102E800003E013071C0E2F4B1C5400BF00204FF013
:102E9000E0229061072010610020DFE701B500BF4C
:102EA0000098411E00910028FAD108BD31B526498D
:102EB00000980860254800682549B0FBF1F42046D9
:102EC000FFF7C6FF08B100BFFEE700BF1E4800685D
:102ED0000028FBD14FF0E020006920F001004FF006
:102EE000E021086138BD31B5BDF800001649086021
:102EF000164800684FF47A71B0FBF1F42046FFF7F2
:102F0000A7FF08B100BFFEE700BF0F480068002818
:102F1000FBD14FF0E020006920F001004FF0E021EC
:102F2000086138BD0848006820B107480068401EA5
:102F300005490860704700B5FFF7F4FF00BD0000C9
:102F400018ED00E000E400E0340000200000002064
:102F5000A086010008B54FF4C060FDF781F91C2080
:102F60008DF8000001208DF8010003208DF802008B
:102F700001208DF803006846FDF777F908BD0EB50E
:102F800001210846FEF7C1FB01210846FEF7BDFB03
:102F900042F21070ADF804000720ADF800000020E8
:102FA000ADF80600ADF802008DF8080069464FF054
:102FB0008040FEF7D5FC01218807FFF7F3FA0122D4
:102FC00011469007FFF743F801218807FFF724F81F
:102FD0000EBD10B5FFF7BEFFFFF7D1FF10BD00001B
:102FE00008B501213820FEF783FB10208DF803007F
:102FF00003208DF802002020ADF800006946224829
:10300000FEF7BAF84020ADF8000069461E48FEF70A
:10301000B3F88020ADF8000069461B48FEF7ACF815
:103020000420ADF8000069461848FEF7A5F84FF4F3
:103030008070ADF8000069461548FEF79DF84FF422
:103040000070ADF8000069461148FEF795F84FF49E
:103050008060ADF8000069460D48FEF78DF820202D
:103060000949103108604020086080200860042071
:103070000649103108608001054908614000086177
:103080004000086108BD0000000C01400014014030
:103090000010014008B50121B848FEF73EF90121B2
:1030A0000420FEF725FB01210820FEF721FB01216A
:1030B0001020FEF71DFB10208DF8030003208DF873
:1030C00002004FF48070ADF800006946AC48FEF78E
:1030D00053F84FF40050ADF800006946A948FEF7D8
:1030E0004BF84FF40070ADF800006946A448FEF7B5
:1030F00043F8FF20ADF800006946A348FEF73CF80E
:1031000008BD70B504464FF400719D48FEF7E3F822
:103110004FF480719A48FEF7DCF84FF4005199485B
:10312000FEF7D9F89848FEF7D0F820F0FF0040EA03
:10313000040529469448FEF7D5F8B120FFF7AEFE06
:103140004FF400718E48FEF7C4F8B120FFF7A6FED9
:103150004FF400718A48FEF7BEF870BD38B5002400
:1031600004208DF8030003208DF80200FF20ADF845
:10317000000069468448FDF7FFFF4FF480718048E6
:10318000FEF7A9F84FF400517E48FEF7A2F8B120EF
:10319000FFF784FE4FF400717948FEF79AF8B120EA
:1031A000FFF77CFE04E00820FFF778FE601C84B285
:1031B000FF217548FEF773F800F0800010B1B4F5F8
:1031C0007A7FF0DB4FF400716D48FEF784F8102031
:1031D0008DF8030069466C48FDF7CEFF38BD70B529
:1031E00004460D460DB1FFF7B9FF4FF40071644876
:1031F000FEF76FF84FF480716148FEF76CF84FF4FA
:1032000000516048FEF767F8B120FFF747FE5E48BF
:10321000FEF75BF820F0FF0040EA040631465A480A
:10322000FEF760F84FF400715548FEF752F8B120F0
:10323000FFF734FE4FF400715148FEF74CF870BDB3
:1032400070B506460C4606F00F0504F001040CB1FB
:1032500045F0400545F0800500212846FFF7BFFFF7
:1032600070BD70B505460E46144631462846FFF738
:10327000E7FF2046FFF745FF70BD2DE9F047064602
:10328000884614460027A14601E0781CC7B214F80E
:10329000011B0029F9D100250CE019F80520304662
:1032A000731CDEB24146FFF7DCFF102E00D103E0B5
:1032B000681CC5B2BD42F0DB00BFBDE8F0872DE958
:1032C000F04104460E461746984600250EE018F8D1
:1032D00005202046631CDCB23146FFF7C2FF102CEC
:1032E00002D1002486F00106681CC5B2BD42EEDBA7
:1032F000BDE8F08110B500213820FFF770FF0520F0
:10330000FFF7F1FD00213820FFF769FF0520FFF7E7
:10331000EAFD00213820FFF762FF0520FFF7E3FDFB
:1033200001213820FFF75BFF01210820FFF757FF3D
:1033300001210846FFF753FF01210620FFF74FFF49
:1033400001210C20FFF74BFF10BD10B5002101201B
:10335000FFF745FF0520FFF7C6FD10BD70B5054618
:103360000E461446012C07D100210F20FFF737FF2E
:1033700031462846FFF764FF70BD000000023000B0
:10338000000C0140001001400008014008B54FF456
:10339000C060FCF765FF25208DF8000001208DF846
:1033A000010003208DF8020001208DF8030068461B
:1033B000FCF75BFF08BD00B585B001210420FEF7D6
:1033C00097F901218803FEF793F94FF40070ADF8E7
:1033D000100018208DF8130003208DF8120004A9A6
:1033E0004F48FDF7C9FE4FF48060ADF8100004208F
:1033F0008DF8130004A94A48FDF7BEFE4FF416509D
:1034000000900020ADF80400ADF80600ADF808000B
:10341000ADF80C000C20ADF80A0069464148FFF7F2
:103420001CF9FFF7B3FF01213E48FFF7A2F905B0F1
:1034300000BD70B504460D4629462046FFF706FA42
:1034400000BF80212046FFF76FFA0028F9D070BD39
:103450002DE9F04107460D461646002405E0295D9A
:103460003846FFF7E6FF601CC4B2B442F7DB00BF8A
:1034700040213846FFF758FA0028F9D0BDE8F0811E
:1034800070B506460C46002500BF615D3046FFF76B
:10349000D0FF6D1C605D0028F7D100BF4021304691
:1034A000FFF742FA0028F9D070BD2DE9F04105463A
:1034B0000C46260AE7B231462846FFF7C7F900BF97
:1034C00080212846FFF730FA0028F9D039462846EF
:1034D000FFF7BCF900BF80212846FFF725FA002836
:1034E000F9D0BDE8F08170B504460D46E1B20D4853
:1034F000FFF7ACF900BF80210A48FFF715FA002852
:10350000F9D0204670BD10B5044600BF2021054803
:10351000FFF70AFA0028F9D00248FFF79BF910BD1F
:1035200000080140003801401FB501210820FEF7C6
:10353000DFF801210846FEF7DBF848208DF80F0080
:103540000220ADF80C0003208DF80E0003A92948D5
:10355000FDF712FE00210120FDF724FF012108469E
:10356000FDF720FF0320019001208DF80A000020C4
:103570008DF808000C208DF8090001A8FDF73EFA2F
:103580004FF4A060FCF76CFE06208DF800000120CF
:103590008DF803008DF801008DF802006846FCF7F5
:1035A00064FE07208DF8000001208DF803008DF8DF
:1035B000010002208DF802006846FCF756FE1FBD90
:1035C0000D49087800210C4A1170704710B502208F
:1035D000FDF77AFA01280CD102210648FDF75FFEBB
:1035E00020B905480078401C034908700220FDF707
:1035F0007CFA10BD000C01403800002080EA010276
:1036000010B502F00043400022D04A001FD0010E46
:1036100001EB1261C0F35600C2F3560240F4000001
:1036200042F40002A0FB022000047F39140400D001
:10363000401C50EA124001D44000491EC2B20C06A0
:1036400004EBD010401C4008802A02D003E0002088
:1036500010BD20F00100002900DA0020184310BD41
:1036600030B480EA010202F0004530F0004221F05F
:10367000004013D090B1C30DD40DC2F31601C0F3B6
:103680001600E41A41F4000140F400027D34914236
:1036900001D3641C00E04900002C02DA30BC002099
:1036A00070474FF400000023914201D3891A03436D
:1036B00040084FEA4101F7D151B1914202D14FF098
:1036C000004105E002D24FF0010101E06FF001017D
:1036D00003EBC450284430BC00F02FB896230022DE
:1036E000114600F033B820F00040C10DC0F31600C1
:1036F00040F400007F2901DA00207047962903DC9E
:10370000C1F19601C840704796398840704730B57E
:103710000B46014600202022012409E021FA02F58F
:103720009D4205D303FA02F5491B04FA02F5284429
:10373000151EA2F10102F1DC30BD0029A8BF7047BF
:10374000401C490008BF20F00100704710B4B0FAD7
:1037500080FC00FA0CF050EA010404BF10BC704772
:1037600049B1CCF1200421FA04F411FA0CF118BF8C
:10377000012121430843A3EB0C01CB1D4FEA00615B
:103780004FEA102042BF002010BC704700EBC3502E
:1037900010440029A4BF10BC7047401C490008BF5A
:1037A00020F0010010BC7047064C074D06E0E068B1
:1037B00040F0010394E8070098471034AC42F6D378
:1037C000FCF7BAFC803B0008A03B00080FB4054B97
:1037D00010B503A9044A029800F02CF810BC5DF85B
:1037E00014FB0000E73400083C0000200FB4084B35
:1037F00010B504A902AA039800F01CF8044602A917
:10380000002000F0B8F9204610BC5DF814FB000061
:10381000773B000802E008C8121F08C1002AFAD14D
:1038200070477047002001E001C1121F002AFBD140
:10383000704700002DE9FF4F8BB0884605460026F3
:1038400006E025280BD0DDE90D1290476D1C761C93
:1038500028780028F5D10FB03046BDE8F08F00245D
:10386000A146A2460122AE4900E0044315F8013FFB
:10387000203B02FA03F00842F7D128782A2810D01A
:103880006FF02F022878A0F13001092915D809EB33
:10389000890102EB410144F0020400EB01096D1CB7
:1038A000F0E758F8041B5FEA010903D544F400541B
:1038B000C9F1000944F002046D1C28782E2817D1A4
:1038C00015F8010F44F004042A280ED06FF02F02DF
:1038D0002878A0F1300109290AD80AEB8A0102EB05
:1038E000410100EB010A6D1CF2E758F804AB6D1CB6
:1038F00028786C280FD006DC4C2817D068280DD00B
:103900006A2814D104E0742810D07A280FD10DE071
:1039100044F400140AE044F4801401E044F4401438
:103920006978814202D104F580146D1C6D1C2878E1
:10393000692865D006DC00288DD0632827D064284C
:1039400006D15DE06E2808D073282AD0752877D07C
:10395000DDE90D129047761CE0E0C4F30250022826
:1039600009D003280DD0D8F8001004280DD00E601F
:1039700008F10408D2E0D8F80010F217C1E900629B
:10398000F6E7D8F800100E80F2E70E70F0E718F8AE
:10399000041B8DF8001000208DF80100EB4601207B
:1039A00003E058F804BB4FF0FF3061074FF0000709
:1039B00001D40AE07F1C57450DDA8742FADB1BF879
:1039C00007100029F6D106E07F1C8742FCDB1BF8BC
:1039D00007100029F8D1DDE90D23A9EB0700814686
:1039E000214600F0B1F83044C61904E0DDE90D12BB
:1039F0001BF8010B90477F1EF8D22146484688E00D
:103A000058F8040BC4F302514FF00A0B032900D1FC
:103A100000B2042900D140B2002802DA40422D2130
:103A200002E0210505D52B218DF82410012104E0A9
:103A300006E0E10710D02021F6E708AF089113E077
:103A400058F8040BC4F302514FF00A0B032900D1BC
:103A500080B2042900D1C0B20021EEE75946FFF739
:103A600056FE303107F8011D0028F7D1ADEB0700F5
:103A700000F1200B600702D524F4803401E04FF000
:103A8000010ADA4502DDAAEB0B0000E000208246C5
:103A900000EB0B0108980144A9EB01000A90E00338
:103AA00006D4DDE90D2321460A9800F04DF80644BE
:103AB0004FF0000908E009A911F80900DDE90D122D
:103AC000904709F10109761C08998945F3DBE00369
:103AD0000CD5DDE90D2321460A9800F035F806449F
:103AE00004E0DDE90D1230209047761CBAF10001A8
:103AF000AAF1010AF5DC05E0DDE90D1217F8010B6A
:103B00009047761CBBF10001ABF1010BF4DC0A9885
:103B10002146DDE90D2300F005F806446D1C97E60B
:103B2000092801002DE9F041044600251E461746EC
:103B3000880404D405E039462020B0476D1C641E7B
:103B4000F9D52846BDE8F0812DE9F041044600256D
:103B50001E469046C80301D5302700E02027880480
:103B600004D505E041463846B0476D1C641EF9D5C2
:103B70002846BDE8F0810A68531C0B60107070473E
:103B8000A03B00080000002040000000143800089E
:103B9000E03B00084000002020040000243800081A
:103BA00000127A000000000000000000010203047F
:103BB00006070809000000000102030401020304D3
:103BC00006070809020406080000000000000000C3
:103BD00000000000000000000000000000000000E5
:0400000508000131BD
:00000001FF
